{
  "contractName": "Exchange",
  "abi": [
    {
      "inputs": [
        {
          "internalType": "address",
          "name": "_token",
          "type": "address"
        }
      ],
      "stateMutability": "nonpayable",
      "type": "constructor"
    },
    {
      "inputs": [],
      "name": "tokenAddress",
      "outputs": [
        {
          "internalType": "address",
          "name": "",
          "type": "address"
        }
      ],
      "stateMutability": "view",
      "type": "function"
    },
    {
      "inputs": [
        {
          "internalType": "uint256",
          "name": "_tokenAmount",
          "type": "uint256"
        }
      ],
      "name": "addLiquidity",
      "outputs": [],
      "stateMutability": "payable",
      "type": "function"
    },
    {
      "inputs": [],
      "name": "getReserve",
      "outputs": [
        {
          "internalType": "uint256",
          "name": "",
          "type": "uint256"
        }
      ],
      "stateMutability": "view",
      "type": "function"
    }
  ],
  "bytecode": "0x608060405234801561001057600080fd5b50604051610626380380610626833981810160405281019061003291906100fd565b600073ffffffffffffffffffffffffffffffffffffffff168173ffffffffffffffffffffffffffffffffffffffff1614156100a2576040517f08c379a000000000000000000000000000000000000000000000000000000000815260040161009990610149565b60405180910390fd5b806000806101000a81548173ffffffffffffffffffffffffffffffffffffffff021916908373ffffffffffffffffffffffffffffffffffffffff160217905550506101ec565b6000815190506100f7816101d5565b92915050565b60006020828403121561010f57600080fd5b600061011d848285016100e8565b91505092915050565b6000610133601583610169565b915061013e826101ac565b602082019050919050565b6000602082019050818103600083015261016281610126565b9050919050565b600082825260208201905092915050565b60006101858261018c565b9050919050565b600073ffffffffffffffffffffffffffffffffffffffff82169050919050565b7f696e76616c696420746f6b656e20616464726573730000000000000000000000600082015250565b6101de8161017a565b81146101e957600080fd5b50565b61042b806101fb6000396000f3fe6080604052600436106100345760003560e01c806351c6590a1461003957806359bf5d39146100555780639d76ea5814610080575b600080fd5b610053600480360381019061004e91906102a2565b6100ab565b005b34801561006157600080fd5b5061006a610165565b6040516100779190610364565b60405180910390f35b34801561008c57600080fd5b50610095610216565b6040516100a29190610312565b60405180910390f35b60008060009054906101000a900473ffffffffffffffffffffffffffffffffffffffff1690508073ffffffffffffffffffffffffffffffffffffffff166323b872dd3330856040518463ffffffff1660e01b815260040161010e9392919061032d565b602060405180830381600087803b15801561012857600080fd5b505af115801561013c573d6000803e3d6000fd5b505050506040513d601f19601f820116820180604052508101906101609190610279565b505050565b60008060009054906101000a900473ffffffffffffffffffffffffffffffffffffffff1673ffffffffffffffffffffffffffffffffffffffff166370a08231306040518263ffffffff1660e01b81526004016101c19190610312565b60206040518083038186803b1580156101d957600080fd5b505afa1580156101ed573d6000803e3d6000fd5b505050506040513d601f19601f8201168201806040525081019061021191906102cb565b905090565b60008054906101000a900473ffffffffffffffffffffffffffffffffffffffff1681565b600081519050610249816103c7565b92915050565b60008135905061025e816103de565b92915050565b600081519050610273816103de565b92915050565b60006020828403121561028b57600080fd5b60006102998482850161023a565b91505092915050565b6000602082840312156102b457600080fd5b60006102c28482850161024f565b91505092915050565b6000602082840312156102dd57600080fd5b60006102eb84828501610264565b91505092915050565b6102fd8161037f565b82525050565b61030c816103bd565b82525050565b600060208201905061032760008301846102f4565b92915050565b600060608201905061034260008301866102f4565b61034f60208301856102f4565b61035c6040830184610303565b949350505050565b60006020820190506103796000830184610303565b92915050565b600061038a8261039d565b9050919050565b60008115159050919050565b600073ffffffffffffffffffffffffffffffffffffffff82169050919050565b6000819050919050565b6103d081610391565b81146103db57600080fd5b50565b6103e7816103bd565b81146103f257600080fd5b5056fea2646970667358221220e140acc0f750ddeb78061fbca6641cc5f1d3904a7192dedbcf69e84a90a0ee5064736f6c63430008040033",
  "immutableReferences": {},
  "source": "// SPDX-License-Identifier: MIT\r\npragma solidity >=0.6.0 <=0.8.4;\r\n\r\nimport \"@openzeppelin/contracts/token/ERC20/IERC20.sol\";\r\n\r\ncontract Exchange {\r\n  address public tokenAddress;\r\n\r\n  constructor(address _token) {\r\n    require(_token != address(0), \"invalid token address\");\r\n\r\n    tokenAddress = _token;\r\n  }\r\n\r\n  // Create liquidity pool with created token \r\n  function addLiquidity(uint256 _tokenAmount) public payable {\r\n    IERC20 token = IERC20(tokenAddress);\r\n    token.transferFrom(msg.sender, address(this), _tokenAmount);\r\n  }\r\n\r\n\t// Get the balance of token in pool \r\n\tfunction getReserve() public view returns (uint256) {\r\n  \treturn IERC20(tokenAddress).balanceOf(address(this));\r\n\t}\r\n}\r\n\r\n// 1. Create a token with Token contract \r\n// 2. Initialize that contract address with Exchange constructor\r\n    // List new token on exchanges\r\n// 3. Make sure address exists before deploying to exchange\r\n// 4. Creating function for adding liquidity \r\n    // Make ERC token comply with ERC standards by passing through IERC20 interface (Token (contract) will not deploy otherwise)\r\n        // Resource - [https://ethereum.stackexchange.com/questions/60940/what-is-ierc20]\r\n    // Use transferFrom function from IERC20 Interface to \r\n        // Transfer token to this exchange contract address and \r\n            // allocate the amount\r\n\t\t\t\t// This function is used as opposed to the payable modifier\r\n\t\t\t\t\t// The payable modifier is used to send eth to a contract and \r\n\t\t\t\t\t\t// makes it possible for that contract to receive eth  \r\n\t\t\t\t\t// The transferFrom function is used to send a ERC20 token to a \r\n\t\t\t\t\t\t// contract (as per the ERC20 Standard and interface)\r\n\t\t// To make it more expilcit that a contract will be receiving an storing eth directly on the contract\r\n\t\t\t// The 'receive' method should be used in conjuction with payable modifier. \r\n\t\t\t\t// Resource - [https://ethereum.stackexchange.com/questions/81994/what-is-the-receive-keyword-in-solidity/81995]\r\n// 5. Add helper function to view the reserve of a particular pool inside exchange contract \r\n\t// Make function public to be called from anywhere\r\n\t// Use view to ensure that state cannot be changed \r\n\t// Specify that the function will return a uint \r\n\t// Use the IERC20 interface \r\n",
  "sourcePath": "C:/Users/Kyle/Desktop/All docs needed2020.1.4/Smart-Contract-Programmer-Workspace/Hacks/Unoswap/contracts/Exchange.sol",
  "compiler": {
    "name": "solc",
    "version": "0.8.4+commit.c7e474f2.Emscripten.clang"
  },
  "schemaVersion": "3.3.4",
  "updatedAt": "2021-08-15T14:45:07.076Z",
  "devdoc": {
    "kind": "dev",
    "methods": {},
    "version": 1
  },
  "userdoc": {
    "kind": "user",
    "methods": {},
    "version": 1
  }
}